{
  "contractAddress": "0x2d4D2DC54C7d6D721f8195f2FFCFaCD707b62bE2",
  "abi": [
    {
      "inputs": [],
      "stateMutability": "nonpayable",
      "type": "constructor"
    },
    {
      "anonymous": false,
      "inputs": [
        {
          "indexed": false,
          "internalType": "uint256",
          "name": "id",
          "type": "uint256"
        },
        {
          "indexed": false,
          "internalType": "int256",
          "name": "latitude",
          "type": "int256"
        },
        {
          "indexed": false,
          "internalType": "int256",
          "name": "longitude",
          "type": "int256"
        }
      ],
      "name": "LocationUpdated",
      "type": "event"
    },
    {
      "anonymous": false,
      "inputs": [
        {
          "indexed": false,
          "internalType": "uint256",
          "name": "id",
          "type": "uint256"
        }
      ],
      "name": "SOSTriggered",
      "type": "event"
    },
    {
      "anonymous": false,
      "inputs": [
        {
          "indexed": false,
          "internalType": "uint256",
          "name": "id",
          "type": "uint256"
        },
        {
          "indexed": false,
          "internalType": "string",
          "name": "name",
          "type": "string"
        },
        {
          "indexed": false,
          "internalType": "uint256",
          "name": "tripStart",
          "type": "uint256"
        },
        {
          "indexed": false,
          "internalType": "uint256",
          "name": "tripEnd",
          "type": "uint256"
        }
      ],
      "name": "TouristRegistered",
      "type": "event"
    },
    {
      "inputs": [],
      "name": "admin",
      "outputs": [
        {
          "internalType": "address",
          "name": "",
          "type": "address"
        }
      ],
      "stateMutability": "view",
      "type": "function",
      "constant": true
    },
    {
      "inputs": [
        {
          "internalType": "address",
          "name": "",
          "type": "address"
        }
      ],
      "name": "touristByWallet",
      "outputs": [
        {
          "internalType": "uint256",
          "name": "",
          "type": "uint256"
        }
      ],
      "stateMutability": "view",
      "type": "function",
      "constant": true
    },
    {
      "inputs": [],
      "name": "touristCount",
      "outputs": [
        {
          "internalType": "uint256",
          "name": "",
          "type": "uint256"
        }
      ],
      "stateMutability": "view",
      "type": "function",
      "constant": true
    },
    {
      "inputs": [
        {
          "internalType": "uint256",
          "name": "",
          "type": "uint256"
        }
      ],
      "name": "tourists",
      "outputs": [
        {
          "internalType": "uint256",
          "name": "id",
          "type": "uint256"
        },
        {
          "internalType": "string",
          "name": "name",
          "type": "string"
        },
        {
          "internalType": "string",
          "name": "aadharOrPassport",
          "type": "string"
        },
        {
          "internalType": "uint256",
          "name": "tripStart",
          "type": "uint256"
        },
        {
          "internalType": "uint256",
          "name": "tripEnd",
          "type": "uint256"
        },
        {
          "internalType": "string",
          "name": "emergencyContact",
          "type": "string"
        },
        {
          "internalType": "bool",
          "name": "isRegistered",
          "type": "bool"
        },
        {
          "internalType": "bool",
          "name": "sosActive",
          "type": "bool"
        },
        {
          "internalType": "int256",
          "name": "latitude",
          "type": "int256"
        },
        {
          "internalType": "int256",
          "name": "longitude",
          "type": "int256"
        }
      ],
      "stateMutability": "view",
      "type": "function",
      "constant": true
    },
    {
      "inputs": [
        {
          "internalType": "string",
          "name": "_name",
          "type": "string"
        },
        {
          "internalType": "string",
          "name": "_aadharOrPassport",
          "type": "string"
        },
        {
          "internalType": "uint256",
          "name": "_tripStart",
          "type": "uint256"
        },
        {
          "internalType": "uint256",
          "name": "_tripEnd",
          "type": "uint256"
        },
        {
          "internalType": "string",
          "name": "_emergencyContact",
          "type": "string"
        }
      ],
      "name": "registerTourist",
      "outputs": [
        {
          "internalType": "uint256",
          "name": "",
          "type": "uint256"
        }
      ],
      "stateMutability": "nonpayable",
      "type": "function"
    },
    {
      "inputs": [
        {
          "internalType": "uint256",
          "name": "_id",
          "type": "uint256"
        },
        {
          "internalType": "int256",
          "name": "_lat",
          "type": "int256"
        },
        {
          "internalType": "int256",
          "name": "_long",
          "type": "int256"
        }
      ],
      "name": "updateLocation",
      "outputs": [],
      "stateMutability": "nonpayable",
      "type": "function"
    },
    {
      "inputs": [
        {
          "internalType": "uint256",
          "name": "_id",
          "type": "uint256"
        }
      ],
      "name": "triggerSOS",
      "outputs": [],
      "stateMutability": "nonpayable",
      "type": "function"
    },
    {
      "inputs": [
        {
          "internalType": "uint256",
          "name": "_id",
          "type": "uint256"
        }
      ],
      "name": "resetSOS",
      "outputs": [],
      "stateMutability": "nonpayable",
      "type": "function"
    },
    {
      "inputs": [
        {
          "internalType": "uint256",
          "name": "_id",
          "type": "uint256"
        }
      ],
      "name": "getTourist",
      "outputs": [
        {
          "components": [
            {
              "internalType": "uint256",
              "name": "id",
              "type": "uint256"
            },
            {
              "internalType": "string",
              "name": "name",
              "type": "string"
            },
            {
              "internalType": "string",
              "name": "aadharOrPassport",
              "type": "string"
            },
            {
              "internalType": "uint256",
              "name": "tripStart",
              "type": "uint256"
            },
            {
              "internalType": "uint256",
              "name": "tripEnd",
              "type": "uint256"
            },
            {
              "internalType": "string",
              "name": "emergencyContact",
              "type": "string"
            },
            {
              "internalType": "bool",
              "name": "isRegistered",
              "type": "bool"
            },
            {
              "internalType": "bool",
              "name": "sosActive",
              "type": "bool"
            },
            {
              "internalType": "int256",
              "name": "latitude",
              "type": "int256"
            },
            {
              "internalType": "int256",
              "name": "longitude",
              "type": "int256"
            }
          ],
          "internalType": "struct TouristRegistry.Tourist",
          "name": "",
          "type": "tuple"
        }
      ],
      "stateMutability": "view",
      "type": "function",
      "constant": true
    },
    {
      "inputs": [],
      "name": "getAllTourists",
      "outputs": [
        {
          "components": [
            {
              "internalType": "uint256",
              "name": "id",
              "type": "uint256"
            },
            {
              "internalType": "string",
              "name": "name",
              "type": "string"
            },
            {
              "internalType": "string",
              "name": "aadharOrPassport",
              "type": "string"
            },
            {
              "internalType": "uint256",
              "name": "tripStart",
              "type": "uint256"
            },
            {
              "internalType": "uint256",
              "name": "tripEnd",
              "type": "uint256"
            },
            {
              "internalType": "string",
              "name": "emergencyContact",
              "type": "string"
            },
            {
              "internalType": "bool",
              "name": "isRegistered",
              "type": "bool"
            },
            {
              "internalType": "bool",
              "name": "sosActive",
              "type": "bool"
            },
            {
              "internalType": "int256",
              "name": "latitude",
              "type": "int256"
            },
            {
              "internalType": "int256",
              "name": "longitude",
              "type": "int256"
            }
          ],
          "internalType": "struct TouristRegistry.Tourist[]",
          "name": "",
          "type": "tuple[]"
        }
      ],
      "stateMutability": "view",
      "type": "function",
      "constant": true
    },
    {
      "inputs": [
        {
          "internalType": "uint256",
          "name": "_id",
          "type": "uint256"
        }
      ],
      "name": "deleteTourist",
      "outputs": [],
      "stateMutability": "nonpayable",
      "type": "function"
    }
  ],
  "bytecode": "0x6080604052600060015534801561001557600080fd5b50600080546001600160a01b031916331790556113f7806100376000396000f3fe608060405234801561001057600080fd5b50600436106100a95760003560e01c806381f4b3751161007157806381f4b3751461012b57806389e85fca1461014b5780638f21023e1461015e578063a02caf2614610171578063ce101b2f14610184578063f851a440146101ad57600080fd5b8063134f012c146100ae57806324e1c754146100cc5780634d077cd5146100fa578063680cc8bc1461010f5780637d0f56b014610118575b600080fd5b6100b66101d8565b6040516100c39190610ef8565b60405180910390f35b6100ec6100da366004610f5a565b60036020526000908152604090205481565b6040519081526020016100c3565b61010d610108366004610f8a565b6104dd565b005b6100ec60015481565b61010d610126366004610fb6565b610573565b61013e610139366004610fb6565b6105ed565b6040516100c39190610fcf565b6100ec610159366004611085565b61084c565b61010d61016c366004610fb6565b6109b9565b61010d61017f366004610fb6565b610ad9565b610197610192366004610fb6565b610b68565b6040516100c39a99989796959493929190611121565b6000546101c0906001600160a01b031681565b6040516001600160a01b0390911681526020016100c3565b6000546060906001600160a01b0316331461020e5760405162461bcd60e51b81526004016102059061119b565b60405180910390fd5b600060015467ffffffffffffffff81111561022b5761022b610fe2565b60405190808252806020026020018201604052801561026457816020015b610251610d54565b8152602001906001900390816102495790505b50905060005b6001548110156104d757600260006102838360016111d4565b815260200190815260200160002060405180610140016040529081600082015481526020016001820180546102b7906111ed565b80601f01602080910402602001604051908101604052809291908181526020018280546102e3906111ed565b80156103305780601f1061030557610100808354040283529160200191610330565b820191906000526020600020905b81548152906001019060200180831161031357829003601f168201915b50505050508152602001600282018054610349906111ed565b80601f0160208091040260200160405190810160405280929190818152602001828054610375906111ed565b80156103c25780601f10610397576101008083540402835291602001916103c2565b820191906000526020600020905b8154815290600101906020018083116103a557829003601f168201915b5050505050815260200160038201548152602001600482015481526020016005820180546103ef906111ed565b80601f016020809104026020016040519081016040528092919081815260200182805461041b906111ed565b80156104685780601f1061043d57610100808354040283529160200191610468565b820191906000526020600020905b81548152906001019060200180831161044b57829003601f168201915b5050509183525050600682015460ff8082161515602084015261010090910416151560408201526007820154606082015260089091015460809091015282518390839081106104b9576104b9611227565b602002602001018190525080806104cf9061123d565b91505061026a565b50905090565b600083815260026020526040902060060154839060ff166105105760405162461bcd60e51b815260040161020590611256565b6000848152600260209081526040918290206007810186905560080184905581518681529081018590529081018390527fa7d7153cb853320cae55bf1bdc5c4526cd74ebb8c17bbfe765498d85633452b09060600160405180910390a150505050565b6000546001600160a01b0316331461059d5760405162461bcd60e51b81526004016102059061119b565b600081815260026020526040902060060154819060ff166105d05760405162461bcd60e51b815260040161020590611256565b506000908152600260205260409020600601805461ff0019169055565b6105f5610d54565b6000546001600160a01b0316331461061f5760405162461bcd60e51b81526004016102059061119b565b600260008381526020019081526020016000206040518061014001604052908160008201548152602001600182018054610658906111ed565b80601f0160208091040260200160405190810160405280929190818152602001828054610684906111ed565b80156106d15780601f106106a6576101008083540402835291602001916106d1565b820191906000526020600020905b8154815290600101906020018083116106b457829003601f168201915b505050505081526020016002820180546106ea906111ed565b80601f0160208091040260200160405190810160405280929190818152602001828054610716906111ed565b80156107635780601f1061073857610100808354040283529160200191610763565b820191906000526020600020905b81548152906001019060200180831161074657829003601f168201915b505050505081526020016003820154815260200160048201548152602001600582018054610790906111ed565b80601f01602080910402602001604051908101604052809291908181526020018280546107bc906111ed565b80156108095780601f106107de57610100808354040283529160200191610809565b820191906000526020600020905b8154815290600101906020018083116107ec57829003601f168201915b5050509183525050600682015460ff8082161515602084015261010090910416151560408201526007820154606082015260089091015460809091015292915050565b600180546000918261085d8361123d565b909155505060408051610140810182526001805480835260208084018b81528486018b9052606085018a90526080850189905260a0850188905260c08501849052600060e08601819052610100860181905261012086018190529283526002909152939020825181559251919291908201906108d990826112d5565b50604082015160028201906108ee90826112d5565b50606082015160038201556080820151600482015560a0820151600582019061091790826112d5565b5060c082015160068201805460e085015161ffff1990911692151561ff0019169290921761010092151583021790558201516007820155610120909101516008909101556001543360009081526003602052604090819020829055517f9083aff289fece3b50bae3f4cdd2543a18a18301d9bc250c28804d8d6f55d809916109a491899088908890611395565b60405180910390a15060015495945050505050565b6000546001600160a01b031633146109e35760405162461bcd60e51b81526004016102059061119b565b600081815260026020526040902060060154819060ff16610a165760405162461bcd60e51b815260040161020590611256565b6000828152600260205260409020600401544211610a6b5760405162461bcd60e51b8152602060048201526012602482015271151c9a5c081b9bdd081e595d08195b99195960721b6044820152606401610205565b600082815260026020526040812081815590610a8a6001830182610dab565b610a98600283016000610dab565b60038201600090556004820160009055600582016000610ab89190610dab565b5060068101805461ffff191690556000600782018190556008909101555050565b600081815260026020526040902060060154819060ff16610b0c5760405162461bcd60e51b815260040161020590611256565b60008281526002602052604090819020600601805461ff001916610100179055517fc394524dd09588b5121057ec262ace04e158d69f551612ec8c793c00a5a2229190610b5c9084815260200190565b60405180910390a15050565b60026020526000908152604090208054600182018054919291610b8a906111ed565b80601f0160208091040260200160405190810160405280929190818152602001828054610bb6906111ed565b8015610c035780601f10610bd857610100808354040283529160200191610c03565b820191906000526020600020905b815481529060010190602001808311610be657829003601f168201915b505050505090806002018054610c18906111ed565b80601f0160208091040260200160405190810160405280929190818152602001828054610c44906111ed565b8015610c915780601f10610c6657610100808354040283529160200191610c91565b820191906000526020600020905b815481529060010190602001808311610c7457829003601f168201915b505050505090806003015490806004015490806005018054610cb2906111ed565b80601f0160208091040260200160405190810160405280929190818152602001828054610cde906111ed565b8015610d2b5780601f10610d0057610100808354040283529160200191610d2b565b820191906000526020600020905b815481529060010190602001808311610d0e57829003601f168201915b50505060068401546007850154600890950154939460ff8083169561010090930416935091508a565b60405180610140016040528060008152602001606081526020016060815260200160008152602001600081526020016060815260200160001515815260200160001515815260200160008152602001600081525090565b508054610db7906111ed565b6000825580601f10610dc7575050565b601f016020900490600052602060002090810190610de59190610de8565b50565b5b80821115610dfd5760008155600101610de9565b5090565b6000815180845260005b81811015610e2757602081850181015186830182015201610e0b565b506000602082860101526020601f19601f83011685010191505092915050565b6000610140825184526020830151816020860152610e6782860182610e01565b91505060408301518482036040860152610e818282610e01565b915050606083015160608501526080830151608085015260a083015184820360a0860152610eaf8282610e01565b91505060c0830151610ec560c086018215159052565b5060e0830151610ed960e086018215159052565b5061010083810151908501526101209283015192909301919091525090565b6000602080830181845280855180835260408601915060408160051b870101925083870160005b82811015610f4d57603f19888603018452610f3b858351610e47565b94509285019290850190600101610f1f565b5092979650505050505050565b600060208284031215610f6c57600080fd5b81356001600160a01b0381168114610f8357600080fd5b9392505050565b600080600060608486031215610f9f57600080fd5b505081359360208301359350604090920135919050565b600060208284031215610fc857600080fd5b5035919050565b602081526000610f836020830184610e47565b634e487b7160e01b600052604160045260246000fd5b600082601f83011261100957600080fd5b813567ffffffffffffffff8082111561102457611024610fe2565b604051601f8301601f19908116603f0116810190828211818310171561104c5761104c610fe2565b8160405283815286602085880101111561106557600080fd5b836020870160208301376000602085830101528094505050505092915050565b600080600080600060a0868803121561109d57600080fd5b853567ffffffffffffffff808211156110b557600080fd5b6110c189838a01610ff8565b965060208801359150808211156110d757600080fd5b6110e389838a01610ff8565b95506040880135945060608801359350608088013591508082111561110757600080fd5b5061111488828901610ff8565b9150509295509295909350565b60006101408c835280602084015261113b8184018d610e01565b9050828103604084015261114f818c610e01565b905089606084015288608084015282810360a084015261116f8189610e01565b96151560c0840152505092151560e0840152610100830191909152610120909101529695505050505050565b6020808252600990820152682737ba1030b236b4b760b91b604082015260600190565b634e487b7160e01b600052601160045260246000fd5b808201808211156111e7576111e76111be565b92915050565b600181811c9082168061120157607f821691505b60208210810361122157634e487b7160e01b600052602260045260246000fd5b50919050565b634e487b7160e01b600052603260045260246000fd5b60006001820161124f5761124f6111be565b5060010190565b602080825260169082015275151bdd5c9a5cdd081b9bdd081c9959da5cdd195c995960521b604082015260600190565b601f8211156112d057600081815260208120601f850160051c810160208610156112ad5750805b601f850160051c820191505b818110156112cc578281556001016112b9565b5050505b505050565b815167ffffffffffffffff8111156112ef576112ef610fe2565b611303816112fd84546111ed565b84611286565b602080601f83116001811461133857600084156113205750858301515b600019600386901b1c1916600185901b1785556112cc565b600085815260208120601f198616915b8281101561136757888601518255948401946001909101908401611348565b50858210156113855787850151600019600388901b60f8161c191681555b5050505050600190811b01905550565b8481526080602082015260006113ae6080830186610e01565b604083019490945250606001529291505056fea264697066735822122004b173942a779c18dfa2f502e0a860b76dcbffa5008de77b5eb631a1e00f0a1864736f6c63430008130033",
  "immutableReferences": {},
  "source": "// SPDX-License-Identifier: MIT\npragma solidity ^0.8.19;\n\ncontract TouristRegistry {\n    address public admin;\n    uint public touristCount = 0;\n    \n    struct Tourist {\n        uint id;\n        string name;\n        string aadharOrPassport;\n        uint256 tripStart;\n        uint256 tripEnd;\n        string emergencyContact;\n        bool isRegistered;\n        bool sosActive;\n        int256 latitude;\n        int256 longitude;\n    }\n\n    mapping(uint => Tourist) public tourists;\n    mapping(address => uint) public touristByWallet;\n    \n    event TouristRegistered(uint id, string name, uint256 tripStart, uint256 tripEnd);\n    event LocationUpdated(uint id, int256 latitude, int256 longitude);\n    event SOSTriggered(uint id);\n    \n    modifier onlyAdmin() {\n        require(msg.sender == admin, \"Not admin\");\n        _;\n    }\n    \n    modifier onlyRegistered(uint _id) {\n        require(tourists[_id].isRegistered, \"Tourist not registered\");\n        _;\n    }\n\n    constructor() {\n        admin = msg.sender;\n    }\n    \n    function registerTourist(\n        string memory _name,\n        string memory _aadharOrPassport,\n        uint256 _tripStart,\n        uint256 _tripEnd,\n        string memory _emergencyContact\n    ) public returns (uint) {\n        touristCount++;\n        tourists[touristCount] = Tourist({\n            id: touristCount,\n            name: _name,\n            aadharOrPassport: _aadharOrPassport,\n            tripStart: _tripStart,\n            tripEnd: _tripEnd,\n            emergencyContact: _emergencyContact,\n            isRegistered: true,\n            sosActive: false,\n            latitude: 0,\n            longitude: 0\n        });\n        \n        touristByWallet[msg.sender] = touristCount;\n        emit TouristRegistered(touristCount, _name, _tripStart, _tripEnd);\n        return touristCount;\n    }\n    \n    function updateLocation(uint _id, int256 _lat, int256 _long) public onlyRegistered(_id) {\n        tourists[_id].latitude = _lat;\n        tourists[_id].longitude = _long;\n        emit LocationUpdated(_id, _lat, _long);\n    }\n    \n    function triggerSOS(uint _id) public onlyRegistered(_id) {\n        tourists[_id].sosActive = true;\n        emit SOSTriggered(_id);\n    }\n    \n    function resetSOS(uint _id) public onlyAdmin onlyRegistered(_id) {\n        tourists[_id].sosActive = false;\n    }\n    \n    function getTourist(uint _id) public view onlyAdmin returns (Tourist memory) {\n        return tourists[_id];\n    }\n    \n    function getAllTourists() public view onlyAdmin returns (Tourist[] memory) {\n        Tourist[] memory result = new Tourist[](touristCount);\n        for(uint i = 0; i < touristCount; i++){\n            result[i] = tourists[i+1];\n        }\n        return result;\n    }\n    \n    function deleteTourist(uint _id) public onlyAdmin onlyRegistered(_id) {\n        require(block.timestamp > tourists[_id].tripEnd, \"Trip not yet ended\");\n        delete tourists[_id];\n    }\n}\n",
  "sourcePath": "D:\\Project\\sih\\tourist-safety-system\\contracts\\TouristRegistry.sol",
  "compiler": {
    "name": "solc",
    "version": "0.8.19+commit.7dd6d404.Emscripten.clang"
  },
  "schemaVersion": "3.4.16",
  "updatedAt": "2025-09-04T14:42:17.490Z",
  "networkType": "ethereum",
  "devdoc": {
    "kind": "dev",
    "methods": {},
    "version": 1
  },
  "userdoc": {
    "kind": "user",
    "methods": {},
    "version": 1
  }
}