{
  "contractName": "TouristRegistry",
  "abi": [
    {
      "inputs": [],
      "stateMutability": "nonpayable",
      "type": "constructor"
    },
    {
      "anonymous": false,
      "inputs": [
        {
          "indexed": true,
          "internalType": "address",
          "name": "previousAdmin",
          "type": "address"
        },
        {
          "indexed": true,
          "internalType": "address",
          "name": "newAdmin",
          "type": "address"
        }
      ],
      "name": "AdminTransferred",
      "type": "event"
    },
    {
      "anonymous": false,
      "inputs": [
        {
          "indexed": false,
          "internalType": "uint256",
          "name": "id",
          "type": "uint256"
        },
        {
          "indexed": false,
          "internalType": "int256",
          "name": "latitude",
          "type": "int256"
        },
        {
          "indexed": false,
          "internalType": "int256",
          "name": "longitude",
          "type": "int256"
        }
      ],
      "name": "LocationUpdated",
      "type": "event"
    },
    {
      "anonymous": false,
      "inputs": [
        {
          "indexed": false,
          "internalType": "uint256",
          "name": "id",
          "type": "uint256"
        }
      ],
      "name": "SOSReset",
      "type": "event"
    },
    {
      "anonymous": false,
      "inputs": [
        {
          "indexed": false,
          "internalType": "uint256",
          "name": "id",
          "type": "uint256"
        }
      ],
      "name": "SOSTriggered",
      "type": "event"
    },
    {
      "anonymous": false,
      "inputs": [
        {
          "indexed": false,
          "internalType": "uint256",
          "name": "id",
          "type": "uint256"
        }
      ],
      "name": "TouristDeleted",
      "type": "event"
    },
    {
      "anonymous": false,
      "inputs": [
        {
          "indexed": false,
          "internalType": "uint256",
          "name": "id",
          "type": "uint256"
        },
        {
          "indexed": true,
          "internalType": "address",
          "name": "wallet",
          "type": "address"
        },
        {
          "indexed": false,
          "internalType": "string",
          "name": "name",
          "type": "string"
        },
        {
          "indexed": false,
          "internalType": "uint256",
          "name": "tripStart",
          "type": "uint256"
        },
        {
          "indexed": false,
          "internalType": "uint256",
          "name": "tripEnd",
          "type": "uint256"
        }
      ],
      "name": "TouristRegistered",
      "type": "event"
    },
    {
      "inputs": [],
      "name": "admin",
      "outputs": [
        {
          "internalType": "address",
          "name": "",
          "type": "address"
        }
      ],
      "stateMutability": "view",
      "type": "function",
      "constant": true
    },
    {
      "inputs": [
        {
          "internalType": "address",
          "name": "",
          "type": "address"
        }
      ],
      "name": "touristByWallet",
      "outputs": [
        {
          "internalType": "uint256",
          "name": "",
          "type": "uint256"
        }
      ],
      "stateMutability": "view",
      "type": "function",
      "constant": true
    },
    {
      "inputs": [],
      "name": "touristCount",
      "outputs": [
        {
          "internalType": "uint256",
          "name": "",
          "type": "uint256"
        }
      ],
      "stateMutability": "view",
      "type": "function",
      "constant": true
    },
    {
      "inputs": [
        {
          "internalType": "uint256",
          "name": "",
          "type": "uint256"
        }
      ],
      "name": "tourists",
      "outputs": [
        {
          "internalType": "uint256",
          "name": "id",
          "type": "uint256"
        },
        {
          "internalType": "string",
          "name": "name",
          "type": "string"
        },
        {
          "internalType": "bytes32",
          "name": "aadharOrPassportHash",
          "type": "bytes32"
        },
        {
          "internalType": "uint256",
          "name": "tripStart",
          "type": "uint256"
        },
        {
          "internalType": "uint256",
          "name": "tripEnd",
          "type": "uint256"
        },
        {
          "internalType": "string",
          "name": "emergencyContact",
          "type": "string"
        },
        {
          "internalType": "bool",
          "name": "isRegistered",
          "type": "bool"
        },
        {
          "internalType": "bool",
          "name": "sosActive",
          "type": "bool"
        },
        {
          "internalType": "int256",
          "name": "latitude",
          "type": "int256"
        },
        {
          "internalType": "int256",
          "name": "longitude",
          "type": "int256"
        }
      ],
      "stateMutability": "view",
      "type": "function",
      "constant": true
    },
    {
      "inputs": [
        {
          "internalType": "string",
          "name": "_name",
          "type": "string"
        },
        {
          "internalType": "string",
          "name": "_aadharOrPassport",
          "type": "string"
        },
        {
          "internalType": "uint256",
          "name": "_tripStart",
          "type": "uint256"
        },
        {
          "internalType": "uint256",
          "name": "_tripEnd",
          "type": "uint256"
        },
        {
          "internalType": "string",
          "name": "_emergencyContact",
          "type": "string"
        }
      ],
      "name": "registerTourist",
      "outputs": [
        {
          "internalType": "uint256",
          "name": "",
          "type": "uint256"
        }
      ],
      "stateMutability": "nonpayable",
      "type": "function"
    },
    {
      "inputs": [
        {
          "internalType": "bytes32",
          "name": "_aadharOrPassportHash",
          "type": "bytes32"
        },
        {
          "internalType": "string",
          "name": "_name",
          "type": "string"
        },
        {
          "internalType": "uint256",
          "name": "_tripStart",
          "type": "uint256"
        },
        {
          "internalType": "uint256",
          "name": "_tripEnd",
          "type": "uint256"
        },
        {
          "internalType": "string",
          "name": "_emergencyContact",
          "type": "string"
        }
      ],
      "name": "registerTouristSecure",
      "outputs": [
        {
          "internalType": "uint256",
          "name": "",
          "type": "uint256"
        }
      ],
      "stateMutability": "nonpayable",
      "type": "function"
    },
    {
      "inputs": [
        {
          "internalType": "int256",
          "name": "_lat",
          "type": "int256"
        },
        {
          "internalType": "int256",
          "name": "_long",
          "type": "int256"
        }
      ],
      "name": "updateMyLocation",
      "outputs": [],
      "stateMutability": "nonpayable",
      "type": "function"
    },
    {
      "inputs": [],
      "name": "triggerMySOS",
      "outputs": [],
      "stateMutability": "nonpayable",
      "type": "function"
    },
    {
      "inputs": [
        {
          "internalType": "uint256",
          "name": "_id",
          "type": "uint256"
        }
      ],
      "name": "resetSOS",
      "outputs": [],
      "stateMutability": "nonpayable",
      "type": "function"
    },
    {
      "inputs": [
        {
          "internalType": "uint256",
          "name": "_id",
          "type": "uint256"
        }
      ],
      "name": "getTourist",
      "outputs": [
        {
          "components": [
            {
              "internalType": "uint256",
              "name": "id",
              "type": "uint256"
            },
            {
              "internalType": "string",
              "name": "name",
              "type": "string"
            },
            {
              "internalType": "bytes32",
              "name": "aadharOrPassportHash",
              "type": "bytes32"
            },
            {
              "internalType": "uint256",
              "name": "tripStart",
              "type": "uint256"
            },
            {
              "internalType": "uint256",
              "name": "tripEnd",
              "type": "uint256"
            },
            {
              "internalType": "string",
              "name": "emergencyContact",
              "type": "string"
            },
            {
              "internalType": "bool",
              "name": "isRegistered",
              "type": "bool"
            },
            {
              "internalType": "bool",
              "name": "sosActive",
              "type": "bool"
            },
            {
              "internalType": "int256",
              "name": "latitude",
              "type": "int256"
            },
            {
              "internalType": "int256",
              "name": "longitude",
              "type": "int256"
            }
          ],
          "internalType": "struct TouristRegistry.Tourist",
          "name": "",
          "type": "tuple"
        }
      ],
      "stateMutability": "view",
      "type": "function",
      "constant": true
    },
    {
      "inputs": [],
      "name": "getAllTourists",
      "outputs": [
        {
          "components": [
            {
              "internalType": "uint256",
              "name": "id",
              "type": "uint256"
            },
            {
              "internalType": "string",
              "name": "name",
              "type": "string"
            },
            {
              "internalType": "bytes32",
              "name": "aadharOrPassportHash",
              "type": "bytes32"
            },
            {
              "internalType": "uint256",
              "name": "tripStart",
              "type": "uint256"
            },
            {
              "internalType": "uint256",
              "name": "tripEnd",
              "type": "uint256"
            },
            {
              "internalType": "string",
              "name": "emergencyContact",
              "type": "string"
            },
            {
              "internalType": "bool",
              "name": "isRegistered",
              "type": "bool"
            },
            {
              "internalType": "bool",
              "name": "sosActive",
              "type": "bool"
            },
            {
              "internalType": "int256",
              "name": "latitude",
              "type": "int256"
            },
            {
              "internalType": "int256",
              "name": "longitude",
              "type": "int256"
            }
          ],
          "internalType": "struct TouristRegistry.Tourist[]",
          "name": "",
          "type": "tuple[]"
        }
      ],
      "stateMutability": "view",
      "type": "function",
      "constant": true
    },
    {
      "inputs": [
        {
          "internalType": "uint256",
          "name": "_id",
          "type": "uint256"
        }
      ],
      "name": "deleteTourist",
      "outputs": [],
      "stateMutability": "nonpayable",
      "type": "function"
    },
    {
      "inputs": [
        {
          "internalType": "address",
          "name": "_newAdmin",
          "type": "address"
        }
      ],
      "name": "transferAdmin",
      "outputs": [],
      "stateMutability": "nonpayable",
      "type": "function"
    },
    {
      "inputs": [],
      "name": "getMyTouristData",
      "outputs": [
        {
          "components": [
            {
              "internalType": "uint256",
              "name": "id",
              "type": "uint256"
            },
            {
              "internalType": "string",
              "name": "name",
              "type": "string"
            },
            {
              "internalType": "bytes32",
              "name": "aadharOrPassportHash",
              "type": "bytes32"
            },
            {
              "internalType": "uint256",
              "name": "tripStart",
              "type": "uint256"
            },
            {
              "internalType": "uint256",
              "name": "tripEnd",
              "type": "uint256"
            },
            {
              "internalType": "string",
              "name": "emergencyContact",
              "type": "string"
            },
            {
              "internalType": "bool",
              "name": "isRegistered",
              "type": "bool"
            },
            {
              "internalType": "bool",
              "name": "sosActive",
              "type": "bool"
            },
            {
              "internalType": "int256",
              "name": "latitude",
              "type": "int256"
            },
            {
              "internalType": "int256",
              "name": "longitude",
              "type": "int256"
            }
          ],
          "internalType": "struct TouristRegistry.Tourist",
          "name": "",
          "type": "tuple"
        }
      ],
      "stateMutability": "view",
      "type": "function",
      "constant": true
    }
  ],
  "bytecode": "0x6080604052600060015534801561001557600080fd5b50600080546001600160a01b03191633179055611585806100376000396000f3fe608060405234801561001057600080fd5b50600436106100ea5760003560e01c80637e4a45581161008c5780638f21023e116100665780638f21023e146101be578063bc17e6af146101d1578063ce101b2f146101e4578063f851a4401461020d57600080fd5b80637e4a45581461019057806381f4b3751461019857806389e85fca146101ab57600080fd5b8063645d259e116100c8578063645d259e1461014a578063680cc8bc1461015f57806375829def146101685780637d0f56b01461017d57600080fd5b806305756f44146100ef578063134f012c1461011557806324e1c7541461012a575b600080fd5b6101026100fd366004611005565b610238565b6040519081526020015b60405180910390f35b61011d610252565b60405161010c9190611177565b6101026101383660046111d9565b60036020526000908152604090205481565b6101526104cf565b60405161010c9190611209565b61010260015481565b61017b6101763660046111d9565b6106ac565b005b61017b61018b36600461121c565b61076b565b61017b610849565b6101526101a636600461121c565b6108d4565b6101026101b9366004611235565b61093f565b61017b6101cc36600461121c565b610984565b61017b6101df366004611287565b610af3565b6101f76101f236600461121c565b610b85565b60405161010c9a999897969594939291906112a9565b600054610220906001600160a01b031681565b6040516001600160a01b03909116815260200161010c565b6000610248338688878787610ce9565b9695505050505050565b6000546060906001600160a01b031633146102885760405162461bcd60e51b815260040161027f90611315565b60405180910390fd5b600060015467ffffffffffffffff8111156102a5576102a5610f62565b6040519080825280602002602001820160405280156102de57816020015b6102cb610eb2565b8152602001906001900390816102c35790505b50905060005b6001548110156104c957600260006102fd83600161134e565b8152602001908152602001600020604051806101400160405290816000820154815260200160018201805461033190611367565b80601f016020809104026020016040519081016040528092919081815260200182805461035d90611367565b80156103aa5780601f1061037f576101008083540402835291602001916103aa565b820191906000526020600020905b81548152906001019060200180831161038d57829003601f168201915b505050505081526020016002820154815260200160038201548152602001600482015481526020016005820180546103e190611367565b80601f016020809104026020016040519081016040528092919081815260200182805461040d90611367565b801561045a5780601f1061042f5761010080835404028352916020019161045a565b820191906000526020600020905b81548152906001019060200180831161043d57829003601f168201915b5050509183525050600682015460ff8082161515602084015261010090910416151560408201526007820154606082015260089091015460809091015282518390839081106104ab576104ab6113a1565b602002602001018190525080806104c1906113b7565b9150506102e4565b50905090565b6104d7610eb2565b33600090815260036020526040812054908190036105075760405162461bcd60e51b815260040161027f906113d0565b60026000828152602001908152602001600020604051806101400160405290816000820154815260200160018201805461054090611367565b80601f016020809104026020016040519081016040528092919081815260200182805461056c90611367565b80156105b95780601f1061058e576101008083540402835291602001916105b9565b820191906000526020600020905b81548152906001019060200180831161059c57829003601f168201915b505050505081526020016002820154815260200160038201548152602001600482015481526020016005820180546105f090611367565b80601f016020809104026020016040519081016040528092919081815260200182805461061c90611367565b80156106695780601f1061063e57610100808354040283529160200191610669565b820191906000526020600020905b81548152906001019060200180831161064c57829003601f168201915b5050509183525050600682015460ff8082161515602084015261010090910416151560408201526007820154606082015260089091015460809091015292915050565b6000546001600160a01b031633146106d65760405162461bcd60e51b815260040161027f90611315565b6001600160a01b03811661071b5760405162461bcd60e51b815260206004820152600c60248201526b5a65726f206164647265737360a01b604482015260640161027f565b600080546001600160a01b038381166001600160a01b0319831681178455604051919092169283917ff8ccb027dfcd135e000e9d45e6cc2d662578a8825d4c45b5e32e0adf67e79ec69190a35050565b6000546001600160a01b031633146107955760405162461bcd60e51b815260040161027f90611315565b600081815260026020526040902060060154819060ff166107f15760405162461bcd60e51b8152602060048201526016602482015275151bdd5c9a5cdd081b9bdd081c9959da5cdd195c995960521b604482015260640161027f565b60008281526002602052604090819020600601805461ff0019169055517f18bc1000b52259dfa2c5b32b8e04c9d21957e6241ffdc038fc695a523fb4322c9061083d9084815260200190565b60405180910390a15050565b33600090815260036020526040812054908190036108795760405162461bcd60e51b815260040161027f906113d0565b60008181526002602052604090819020600601805461ff001916610100179055517fc394524dd09588b5121057ec262ace04e158d69f551612ec8c793c00a5a22291906108c99083815260200190565b60405180910390a150565b6108dc610eb2565b6000546001600160a01b031633146109065760405162461bcd60e51b815260040161027f90611315565b60026000838152602001908152602001600020604051806101400160405290816000820154815260200160018201805461054090611367565b6000808560405160200161095391906113f8565b604051602081830303815290604052805190602001209050610979338883888888610ce9565b979650505050505050565b6000546001600160a01b031633146109ae5760405162461bcd60e51b815260040161027f90611315565b600081815260026020526040902060060154819060ff16610a0a5760405162461bcd60e51b8152602060048201526016602482015275151bdd5c9a5cdd081b9bdd081c9959da5cdd195c995960521b604482015260640161027f565b6000828152600260205260409020600401544211610a5f5760405162461bcd60e51b8152602060048201526012602482015271151c9a5c081b9bdd081e595d08195b99195960721b604482015260640161027f565b600082815260026020526040812081815590610a7e6001830182610f0c565b600282016000905560038201600090556004820160009055600582016000610aa69190610f0c565b5060068101805461ffff191690556000600782018190556008909101556040518281527ff70f90c4bab1f675d8da2379577733e23f530e22de706dbea43c47d058ad31f29060200161083d565b3360009081526003602052604081205490819003610b235760405162461bcd60e51b815260040161027f906113d0565b6000818152600260209081526040918290206007810186905560080184905581518381529081018590529081018390527fa7d7153cb853320cae55bf1bdc5c4526cd74ebb8c17bbfe765498d85633452b09060600160405180910390a1505050565b60026020526000908152604090208054600182018054919291610ba790611367565b80601f0160208091040260200160405190810160405280929190818152602001828054610bd390611367565b8015610c205780601f10610bf557610100808354040283529160200191610c20565b820191906000526020600020905b815481529060010190602001808311610c0357829003601f168201915b505050505090806002015490806003015490806004015490806005018054610c4790611367565b80601f0160208091040260200160405190810160405280929190818152602001828054610c7390611367565b8015610cc05780601f10610c9557610100808354040283529160200191610cc0565b820191906000526020600020905b815481529060010190602001808311610ca357829003601f168201915b50505060068401546007850154600890950154939460ff8083169561010090930416935091508a565b6001600160a01b03861660009081526003602052604081205415610d445760405162461bcd60e51b8152602060048201526012602482015271105b1c9958591e481c9959da5cdd195c995960721b604482015260640161027f565b60018054906000610d54836113b7565b909155505060408051610140810182526001805480835260208084018b81528486018b9052606085018a90526080850189905260a0850188905260c08501849052600060e0860181905261010086018190526101208601819052928352600290915293902082518155925191929190820190610dd09082611463565b5060408201516002820155606082015160038201556080820151600482015560a08201516005820190610e039082611463565b5060c082015160068201805460e085015161ffff1990911692151561ff0019169290921761010092151583021790558201516007820155610120909101516008909101556001546001600160a01b038816600081815260036020526040908190208390555190917f30bbddd8a11cf1815a4947f8f06dd5e6c54a564582467cdf293db250f6a97a6891610e9c91908a9089908990611523565b60405180910390a2506001549695505050505050565b60405180610140016040528060008152602001606081526020016000801916815260200160008152602001600081526020016060815260200160001515815260200160001515815260200160008152602001600081525090565b508054610f1890611367565b6000825580601f10610f28575050565b601f016020900490600052602060002090810190610f469190610f49565b50565b5b80821115610f5e5760008155600101610f4a565b5090565b634e487b7160e01b600052604160045260246000fd5b600082601f830112610f8957600080fd5b813567ffffffffffffffff80821115610fa457610fa4610f62565b604051601f8301601f19908116603f01168101908282118183101715610fcc57610fcc610f62565b81604052838152866020858801011115610fe557600080fd5b836020870160208301376000602085830101528094505050505092915050565b600080600080600060a0868803121561101d57600080fd5b85359450602086013567ffffffffffffffff8082111561103c57600080fd5b61104889838a01610f78565b95506040880135945060608801359350608088013591508082111561106c57600080fd5b5061107988828901610f78565b9150509295509295909350565b60005b838110156110a1578181015183820152602001611089565b50506000910152565b600081518084526110c2816020860160208601611086565b601f01601f19169290920160200192915050565b60006101408251845260208301518160208601526110f6828601826110aa565b91505060408301516040850152606083015160608501526080830151608085015260a083015184820360a086015261112e82826110aa565b91505060c083015161114460c086018215159052565b5060e083015161115860e086018215159052565b5061010083810151908501526101209283015192909301919091525090565b6000602080830181845280855180835260408601915060408160051b870101925083870160005b828110156111cc57603f198886030184526111ba8583516110d6565b9450928501929085019060010161119e565b5092979650505050505050565b6000602082840312156111eb57600080fd5b81356001600160a01b038116811461120257600080fd5b9392505050565b60208152600061120260208301846110d6565b60006020828403121561122e57600080fd5b5035919050565b600080600080600060a0868803121561124d57600080fd5b853567ffffffffffffffff8082111561126557600080fd5b61127189838a01610f78565b9650602088013591508082111561103c57600080fd5b6000806040838503121561129a57600080fd5b50508035926020909101359150565b60006101408c83528060208401526112c38184018d6110aa565b90508a604084015289606084015288608084015282810360a08401526112e981896110aa565b96151560c0840152505092151560e0840152610100830191909152610120909101529695505050505050565b6020808252600990820152682737ba1030b236b4b760b91b604082015260600190565b634e487b7160e01b600052601160045260246000fd5b8082018082111561136157611361611338565b92915050565b600181811c9082168061137b57607f821691505b60208210810361139b57634e487b7160e01b600052602260045260246000fd5b50919050565b634e487b7160e01b600052603260045260246000fd5b6000600182016113c9576113c9611338565b5060010190565b6020808252600e908201526d139bdd081c9959da5cdd195c995960921b604082015260600190565b6000825161140a818460208701611086565b9190910192915050565b601f82111561145e57600081815260208120601f850160051c8101602086101561143b5750805b601f850160051c820191505b8181101561145a57828155600101611447565b5050505b505050565b815167ffffffffffffffff81111561147d5761147d610f62565b6114918161148b8454611367565b84611414565b602080601f8311600181146114c657600084156114ae5750858301515b600019600386901b1c1916600185901b17855561145a565b600085815260208120601f198616915b828110156114f5578886015182559484019460019091019084016114d6565b50858210156115135787850151600019600388901b60f8161c191681555b5050505050600190811b01905550565b84815260806020820152600061153c60808301866110aa565b604083019490945250606001529291505056fea2646970667358221220218885381cb0b46d321d2eedc861e6f1365352dc2fad2b8b0bfded2850304bd364736f6c63430008130033",
  "immutableReferences": {},
  "source": "// SPDX-License-Identifier: MIT\npragma solidity ^0.8.19;\n\ncontract TouristRegistry {\n    address public admin;\n    uint public touristCount = 0;\n    \n    struct Tourist {\n        uint id;\n        string name;\n        bytes32 aadharOrPassportHash; // storing hash instead of raw sensitive string\n        uint256 tripStart;\n        uint256 tripEnd;\n        string emergencyContact; // keep emergency contact on-chain (optional)\n        bool isRegistered;\n        bool sosActive;\n        int256 latitude;\n        int256 longitude;\n    }\n\n    mapping(uint => Tourist) public tourists;\n    mapping(address => uint) public touristByWallet;\n    \n    event TouristRegistered(uint id, address indexed wallet, string name, uint256 tripStart, uint256 tripEnd);\n    event LocationUpdated(uint id, int256 latitude, int256 longitude);\n    event SOSTriggered(uint id);\n    event SOSReset(uint id);\n    event TouristDeleted(uint id);\n    event AdminTransferred(address indexed previousAdmin, address indexed newAdmin);\n    \n    modifier onlyAdmin() {\n        require(msg.sender == admin, \"Not admin\");\n        _;\n    }\n    \n    modifier onlyRegistered(uint _id) {\n        require(tourists[_id].isRegistered, \"Tourist not registered\");\n        _;\n    }\n\n    constructor() {\n        admin = msg.sender;\n    }\n\n    // --- Registration ---\n    // Deprecated: stores plain string (keeps for compatibility). Prefer registerTouristSecure.\n    function registerTourist(\n        string memory _name,\n        string memory _aadharOrPassport,\n        uint256 _tripStart,\n        uint256 _tripEnd,\n        string memory _emergencyContact\n    ) public returns (uint) {\n        bytes32 hash = keccak256(abi.encodePacked(_aadharOrPassport));\n        return _register(msg.sender, _name, hash, _tripStart, _tripEnd, _emergencyContact);\n    }\n\n    // Preferred: client should send hashed Aadhaar/passport (off-chain hashing) for privacy\n    function registerTouristSecure(\n        bytes32 _aadharOrPassportHash,\n        string memory _name,\n        uint256 _tripStart,\n        uint256 _tripEnd,\n        string memory _emergencyContact\n    ) public returns (uint) {\n        return _register(msg.sender, _name, _aadharOrPassportHash, _tripStart, _tripEnd, _emergencyContact);\n    }\n\n    function _register(\n        address _wallet,\n        string memory _name,\n        bytes32 _aadharHash,\n        uint256 _tripStart,\n        uint256 _tripEnd,\n        string memory _emergencyContact\n    ) internal returns (uint) {\n        require(touristByWallet[_wallet] == 0, \"Already registered\");\n        touristCount++;\n        tourists[touristCount] = Tourist({\n            id: touristCount,\n            name: _name,\n            aadharOrPassportHash: _aadharHash,\n            tripStart: _tripStart,\n            tripEnd: _tripEnd,\n            emergencyContact: _emergencyContact,\n            isRegistered: true,\n            sosActive: false,\n            latitude: 0,\n            longitude: 0\n        });\n        \n        touristByWallet[_wallet] = touristCount;\n        emit TouristRegistered(touristCount, _wallet, _name, _tripStart, _tripEnd);\n        return touristCount;\n    }\n    \n    // --- Tourist-controlled actions (only affecting own record) ---\n    function updateMyLocation(int256 _lat, int256 _long) public {\n        uint id = touristByWallet[msg.sender];\n        require(id != 0, \"Not registered\");\n        tourists[id].latitude = _lat;\n        tourists[id].longitude = _long;\n        emit LocationUpdated(id, _lat, _long);\n    }\n    \n    function triggerMySOS() public {\n        uint id = touristByWallet[msg.sender];\n        require(id != 0, \"Not registered\");\n        tourists[id].sosActive = true;\n        emit SOSTriggered(id);\n    }\n    \n    // --- Admin-only actions ---\n    function resetSOS(uint _id) public onlyAdmin onlyRegistered(_id) {\n        tourists[_id].sosActive = false;\n        emit SOSReset(_id);\n    }\n    \n    function getTourist(uint _id) public view onlyAdmin returns (Tourist memory) {\n        return tourists[_id];\n    }\n    \n    function getAllTourists() public view onlyAdmin returns (Tourist[] memory) {\n        Tourist[] memory result = new Tourist[](touristCount);\n        for(uint i = 0; i < touristCount; i++){\n            result[i] = tourists[i+1];\n        }\n        return result;\n    }\n    \n    function deleteTourist(uint _id) public onlyAdmin onlyRegistered(_id) {\n        require(block.timestamp > tourists[_id].tripEnd, \"Trip not yet ended\");\n        // find wallet linked to this id and clear mapping (best-effort)\n        // (note: scanning mapping is expensive; if many entries use off-chain index or keep wallet in struct)\n        // To keep gas reasonable, we clear touristByWallet if msg.sender is current admin and touristByWallet mapping matches\n        // If touristByWallet reverse mapping is essential, consider storing wallet in Tourist struct.\n        // For now we search via touristByWallet mapping using the stored id\n        // WARNING: scanning full mapping on-chain is not practical; keep this in mind for production.\n        // We'll just delete tourist and emit event; app layer should also clear references.\n        delete tourists[_id];\n        emit TouristDeleted(_id);\n    }\n\n    // --- Admin management ---\n    function transferAdmin(address _newAdmin) public onlyAdmin {\n        require(_newAdmin != address(0), \"Zero address\");\n        address previous = admin;\n        admin = _newAdmin;\n        emit AdminTransferred(previous, _newAdmin);\n    }\n\n    // --- Helper: get my tourist data ---\n    function getMyTouristData() public view returns (Tourist memory) {\n        uint id = touristByWallet[msg.sender];\n        require(id != 0, \"Not registered\");\n        return tourists[id];\n    }\n}\n",
  "sourcePath": "D:\\Project\\sih\\tourist-safety-system\\contracts\\TouristRegistry.sol",
  "compiler": {
    "name": "solc",
    "version": "0.8.19+commit.7dd6d404.Emscripten.clang"
  },
  "schemaVersion": "3.4.16",
  "updatedAt": "2025-09-15T15:27:09.140Z",
  "networkType": "ethereum",
  "devdoc": {
    "kind": "dev",
    "methods": {},
    "version": 1
  },
  "userdoc": {
    "kind": "user",
    "methods": {},
    "version": 1
  }
}